:020000040800F2
:10000000505B002079020008C74C0008D51000089A
:10001000C54C0008750900083D5B000800000000A1
:10002000000000000000000000000000E1010008E6
:10003000390D00080000000025020008A555000841
:10004000930200089302000893020008930200083C
:10005000930200089302000893020008930200082C
:10006000930200089302000893020008930200081C
:10007000930200089302000893020008930200080C
:1000800093020008930200089302000893020008FC
:100090009302000893020008930200087D0D0008F7
:1000A00093020008930200089302000893020008DC
:1000B0009302000809560008930200089302000802
:1000C00093020008930200089302000893020008BC
:1000D00093020008A1590008930200089302000847
:1000E000930200089302000893020008930200089C
:1000F000930200089302000893020008930200088C
:100100009302000893020008D956000893020008E1
:100110009302000893020008615700089302000848
:10012000930200089302000893020008930200085B
:1001300000F002F800F045F80AA090E8000C8244B4
:100140008344AAF10107DA4501D100F03AF8AFF291
:10015000090EBAE80F0013F0010F18BFFB1A43F0A5
:10016000010318473494000054940000103A24BF4F
:1001700078C878C1FAD8520724BF30C830C144BF0C
:1001800004680C607047000000230024002500264E
:10019000103A28BF78C1FBD8520728BF30C148BFEA
:1001A0000B607047642900F0F380782900F02C81FF
:1001B000732900F02982002070471FB51FBD10B5BC
:1001C00010BD00F0B6FA1146FFF7F7FF05F04AFD43
:1001D00000F0D4FA03B4FFF7F2FF03BC05F0AFFC64
:1001E000224B19680868B0E8F00F80F30988BFF364
:1001F0006F8F4FF0000080F311884EF00D0E7047A6
:100200000000000006480068006880F3088862B6B5
:1002100061B6BFF34F8FBFF36F8F00DF00BF00BF2A
:1002200008ED00E0EFF30980BFF36F8F0F4B1A6802
:1002300020E9F00F106008B54FF0500080F31188EE
:10024000BFF34F8FBFF36F8F06F050FE4FF00000EB
:1002500080F31188BDE8084019680868B0E8F00F1D
:1002600080F30988BFF36F8F704700BF54000020F0
:10027000EFF30580704700000948804709480047B0
:10028000FEE7FEE7FEE7FEE7FEE7FEE7FEE7FEE746
:10029000FEE7FEE704480549054A064B70470000A3
:1002A000B95500083101000850550020505B00206E
:1002B0005057002050570020704700000FB40449E9
:1002C00010B503AA029800F0A3F910BC5DF814FB66
:1002D0003C0000202DE9F0410E460446002020623B
:1002E0002046E168884730B3252805D0D4E90121AC
:1002F0009047206A401CF2E7E168204600278847C3
:10030000050018D0A5F14100192802D820354FF476
:1003100000673246294620462760FFF743FF40B179
:10032000012804D0F61D26F007060836D8E7361D4A
:10033000D6E72846DAE7206ABDE8F08170B50C46BA
:100340000546012A05D02878800600D5EA690023F1
:1003500002E0012305E05B1C934202D2E05C00282E
:10036000F9D1A869E618C01AA861286A1844286259
:100370002846AFF3008004E0D5E9012114F8010B11
:100380009047B442F8D32846AFF3008070BD000018
:100390002DE9F0410646002410687529314616A55E
:1003A00010D0AFF30080002802DA404213A507E026
:1003B00031688A0701D512A502E0490704D511A5C5
:1003C000012401E0AFF3008000210A2206F1240796
:1003D00009E0B0FBF2FCB0FBF2F302FB1C00303092
:1003E00078541846491C0028F3D123462A46304643
:1003F000BDE8F04100F085B8000000002D000000CD
:100400002B0000002000000070B504460D46214678
:100410001068AFF300802188090502D50F4A7A449D
:1004200002E00E4A7A440E32002104F1240305E072
:1004300000F00F060009965D5E54491C0028F7D1B4
:1004400020780023000704D5702D02D009B10223C3
:1004500011322046BDE8704000F053B84C910000C6
:10046000032A40F2308010F0030C00F0158011F8E0
:10047000013BBCF1020F624498BF11F801CB00F8B8
:10048000013B38BF11F8013BA2F1040298BF00F80C
:1004900001CB38BF00F8013B11F0030300F0CA8024
:1004A000083AC0F0088051F8043B083A51F804CBF0
:1004B000A0E80810F5E7121D5CBF51F8043B40F8B6
:1004C000043BAFF30080D20724BF11F8013B11F8C1
:1004D00001CB48BF11F8012B24BF00F8013B00F805
:1004E00001CB48BF00F8012B704702F0FF0343EA3D
:1004F000032242EA024200F0D1B8704770477047C9
:1005000070472DE9F0470D4699469246044600F1A2
:1005100024080168880604D5E06921F010012160F3
:1005200000E00120A84201DD471B00E00027A1698F
:100530007A1902EB0900081AA0612078C00602D4DB
:100540002046AFF30080002608E0D4E901211AF824
:1005500006009047206A401C761C20624E45F4DB62
:100560002078C0060AD52046AFF3008006E0D4E923
:10057000012130209047206A401C2062381EA7F1DC
:100580000107F4DC07E0D4E9012118F805009047E1
:10059000206A401C2062281EA5F10105F3DC2046DC
:1005A000AFF300802078000602D50220BDE8F08776
:1005B0000120FBE701694A1C02610878704700B519
:1005C0008FB0CDE901310021059105497944CDE98C
:1005D000031011466846FFF77DFE0FB000BD000016
:1005E000E5FFFFFF10B5436913B1AFF3008001E0F1
:1005F000FFF7A4FE012010BD127800F124010A705B
:1006000000224A700122EDE711684FF0FF32E9E75E
:10061000074B70B50D467B44FFF7D1FF04462846D3
:1006200000F05CF810B14FF0FF3070BD204670BD97
:10063000DB55000010B5203AC0F00B80B1E818502F
:10064000203AA0E81850B1E81850A0E81850BFF4BC
:10065000F5AF5FEA027C24BFB1E81850A0E818505B
:1006600044BF18C918C0BDE810405FEA827C24BFAF
:1006700051F8043B40F8043B08BF7047D20728BF3D
:1006800031F8023B48BF11F8012B28BF20F8023B8C
:1006900048BF00F8012B70474FF000020429C0F05A
:1006A000128010F0030C00F01F80CCF1040CBCF1A0
:1006B000020F18BF00F8012BA8BF20F8022BA1EBF6
:1006C0000C0100F011B85FEAC17C24BF00F8012BD7
:1006D00000F8012B48BF00F8012B7047007B00F0A9
:1006E000800070474FF0000200B5134694469646CE
:1006F000203922BFA0E80C50A0E80C50B1F1200135
:10070000BFF4F7AF090728BFA0E80C5048BF0CC0E2
:100710005DF804EB890028BF40F8042B08BF704740
:1007200048BF20F8022B11F0804F18BF00F8012BB2
:100730007047754600F028F8AE46050069465346F6
:1007400020F00700854618B020B5FFF7A3FDBDE8EF
:1007500020404FF000064FF000074FF000084FF028
:10076000000B21F00701AC46ACE8C009ACE8C009B9
:10077000ACE8C009ACE8C0098D4670470446AFF349
:1007800000802046FFF726FD00487047EC5400200B
:100790000029816802D041F0010101E021F001014E
:1007A000816070470D4910B5884202D1012144157E
:1007B0000AE00B49884202D10121041504E00949ED
:1007C00088420AD10121CC03204604F0DFFC2046F8
:1007D000BDE81040002104F0D9BC10BD0024014048
:1007E00000280140003C014001460020896849077B
:1007F00000D501207047C06C80B2704702460020CF
:1008000012680A4200D00120704701460020896822
:10081000090700D50120704710B542680E4B0C79CE
:100820001A400B6842EA04221343436082680B4B70
:100830001A40D1E9024323434C7942EA440213436C
:100840008360C26A097C22F47002491EC9B242EA7E
:100850000151C16210BD0000FFFEF0FFFDF7F1FF86
:1008600070B5072609290AD9C568A1F10A0404EB65
:100870004404A640B543A3401D43C56007E0056995
:1008800001EB4104A640B543A3401D4305611F236E
:10089000072A09D2446B521E02EB820293409C430A
:1008A00091400C43446370BD0D2A09D2046BD21FE2
:1008B00002EB820293409C4391400C43046370BD61
:1008C000C46A0D3A02EB820293409C4391400C4370
:1008D000C46270BD816841F00801816070470029E1
:1008E000816802D041F4A00101E021F4A0018160FF
:1008F0007047816841F004018160704710B50121A3
:10090000CC0386B0204604F035FC0121204604F0DB
:100910003DFC0021204604F039FC154C2046FFF731
:1009200041FF00214FF46020CDE902018DF8041051
:10093000012000918DF805108DF8100069462046C1
:10094000FFF76AFF01212046FFF722FF2046FFF74D
:10095000C1FF2046FFF759FF0028FAD12046FFF7D4
:10096000C8FF2046FFF740FF0028FAD106B010BDAF
:10097000003C0140FEE70000002588B010274DA094
:100980000695CDE900702C460795AB46AA46A946C8
:100990003B46C822D2211E2003F0D1FF4FF6FF763E
:1009A00004F012FAB0B149A0CDE900701023C822BA
:1009B000D2211E2003F0C3FFC82005F0E5F8F6237E
:1009C000EF22D2211E20009600F056FDC82005F02F
:1009D000DBF8E5E741A1CDE900710126B846102317
:1009E000C822D2211E2003F0AAFF079804F09AFA29
:1009F000584604F0CCF9504604F0A2F9484604F0F9
:100A0000D7F9069804F0DAFADFF8E8A04FF0000909
:100A1000CAF8BC9141F61F4142F2107004F0C0FECA
:100A200000F08BF9002000F0C9FBDFF8CCB000200B
:100A300000F070FB80B1142401280DD1CAF8BC91DC
:100A400003F0FCFF2D4FF86806F08AF9B86806F04D
:100A500087F9386906F07EF80EB104F0F5FAD4B1E2
:100A600027493C2202AB08884988F038A1F5A071DB
:100A700001EBD17102EB610100EBD0701E22CDE9D8
:100A8000008302EB600089B280B21023C82203F019
:100A900056FF641EE4B26D1CEDB20F2DC7D3DBF818
:100AA00094010025594618B10020C1F89401BEE711
:100AB0000120FAE74F56373732355F4F5637363712
:100AC0003020496E69742E2E2E0000004F563737A5
:100AD0003235204572726F72212100004F56373730
:100AE000323520496E6974204F4B20202020202071
:100AF000200000000000244200802142000000206D
:100B0000C800002070B516480024416821F47041E7
:100B10004160416841F400414160124D04E0641CB1
:100B2000E4B2012005F04CF8D5F82C0110B1642C8A
:100B3000F5D30DE0642C0BD2002404E0641CE4B275
:100B4000012005F03DF8D5F82C0118B1642C04D330
:100B5000012070BD642CF1D3FAE7002070BD0000C5
:100B6000002001400000244238B50121080204F0B1
:100B700001FB4FF40064ADF8004010208DF8030035
:100B80000320084D8DF802006946284600F0EEF972
:100B90002146284600F06BFA00F062F8FFF7B2FF3A
:100BA00038BD00000020014070B50024104D04E065
:100BB000641CE4B2012005F003F8D5F82C0108B15B
:100BC000642CF5D3002404E0641CE4B2012004F09A
:100BD000F7FFD5F82C0108B9642CF5D3282004F0D0
:100BE000EFFFD5F82C01002800D0012070BD0000D7
:100BF0000000244270B5002004464006050EFFF7B1
:100C0000D3FF641C2843E4B2082CF6D370BD2DE951
:100C1000FC410E46074600F023F8FFF773FF10B1C2
:100C20000120BDE8FC8100246D46FFF7E3FF285555
:100C3000641CE4B2052CF8D39DF800009DF8011067
:100C40009DF8033042189DF802100B441A449DF899
:100C500004309A4201D1307039700020E1E7000081
:100C60000C4810B5416821F470414160416841F47D
:100C700040514160084C0020C4F8AC01142004F538
:100C8000D67404F081FF01202060BDE810401E20D2
:100C900004F096BF00200140000024421FB500244C
:100CA0000A2004F071FF03F0C9FE10264FF6FF750D
:100CB00015E01EA0CDE900601023C82296211E2059
:100CC00003F03DFEC82004F05FFF9223EF2296213F
:100CD0001E20009500F0D0FBC82004F055FFFFF760
:100CE00043FF0028E5D10A25B4FBF5F005FB1040D1
:100CF00098B903A902A8FFF78AFF022300969DF87E
:100D00000820AA21462003F0DFFD022300969DF86B
:100D10000C20BE21462003F0D7FD0A2004F034FF4A
:100D2000641CE4B2142CDFD10024DDE744485431C4
:100D300031204572726F720070473EB50821002065
:100D400000F000F94FF48070002400908DF804400A
:100D500008208DF8050001258DF80650684600F042
:100D600045F817208DF808008DF809408DF80A40E5
:100D70008DF80B5002A803F0A7FF3EBD10B54FF44D
:100D80008074204600F022F801280DD1094A002085
:100D9000C2F898010121C2F898110748C0F88C11D7
:100DA00006480178491C01702046BDE8104000F05B
:100DB00007B800000080224200802142320000205B
:100DC000014908607047000014040140064A0146CA
:100DD00000201268044B0A4014331B680B4202D0F7
:100DE000002A00D0012070470004014030B51A4AA3
:100DF0008379016853B313688B431360111D0B682B
:100E00000468A3430B60017911440B680468234311
:100E10000B60114B083319680468A14319601C1D4D
:100E200021680568A94321604179102905D0114442
:100E30000A68006802430A6030BD196802681143FD
:100E40001960216800680143216030BD00791044B9
:100E500002688A43026030BD000401408000A0F1B6
:100E6000C0400029016802D041F0010101E0024ABE
:100E70001140016070470000FEFF0F0010B5D0E97F
:100E800001121143D0E903231A431143426911436C
:100E900082691143C2691143026A1143426A1143D4
:100EA000826A1143C26A1143026B114302689200C5
:100EB000A2F1C04211608168082907D10168890048
:100EC000A1F1C0410A6842F040020A60416BD1E9D9
:100ED000002342EA03128B688C891B0243EA044315
:100EE0001A430B8A42EA03520B7D896942EA036284
:100EF0000A4301688900A1F1C0414A60C16AB1F5A5
:100F0000804F08D000686FF070418000A0F1C040B1
:100F1000C0F8041110BD816BD1E9002342EA03122D
:100F20008B680C8A1B0243EA04531A430B7D8969C0
:100F300042EA036200680A438000A0F1C040C0F8A2
:100F4000042110BD10B58A0721F003040649120FD1
:100F500021440F238C6893409C438C608B689040A5
:100F600003438B6010BD000000000140F0B5CC7859
:100F7000002204F00F03E40601D58C7823430C789B
:100F80004FF00F0C14F0FF0F4FF0010E1BD005684F
:100F90000E880EFA02F42640A64210D196000CFAF2
:100FA00006F725EA070703FA06F5CE783D43282E13
:100FB00002D0482E02D002E0446100E00461521CDD
:100FC000082AE5D305600A88FF2A1CD94468002254
:100FD00002F108060EFA06F50E882E40AE420ED13A
:100FE00096000CFA06F7BC4303FA06F7CE783C43AA
:100FF000282E00D14561CE78482E00D10561521CC3
:10100000082AE5D34460F0BDF0B5144C002801DA9D
:10101000E36900E06368450D2E0185B2C0F3015716
:10102000B540C0F30342032F05D0C6020AD50326FC
:101030009640B34307E023F07062636823F0706367
:10104000636002E0AB4343F0706201B12A430028C1
:1010500001DAE261F0BD6260F0BD00000000014015
:101060000246002092680A4200D0012070470161C8
:101070007047000010B50B4C0146072301222046A3
:10108000FFF7EEFB01212046FFF729FC0221204655
:10109000FFF7B4FB0028F9D02046BDE81040FFF769
:1010A000AABB0000003C014010B504F049FD4FF41C
:1010B000E13005F03FFB00F00FF803F057FD00F0C2
:1010C00021FA03F0E9FDBDE81040002140F2833031
:1010D00004F0B4BAFEE7000008B50121442004F092
:1010E00049F81820ADF8000048208DF80300694643
:1010F0000648FFF73BFF0120ADF8000028208DF8DF
:10110000030069460248FFF731FF08BD001801409F
:10111000000801402DE9F041254C264F264D0126BF
:1011200008B1267001E0207878B110212846FFF739
:1011300097FF88B108212846FFF792FF60B101218F
:101140003846FFF78DFF012806D010212846FFF70B
:1011500087FF01281DD028E00A2004F015FD00209B
:10116000207010212846FFF77BFF58B10821284640
:10117000FFF776FF48B101213846FFF771FF0128DC
:1011800005D012E00120BDE8F0810220FBE703203A
:10119000F9E708212846FFF763FF012805D101215F
:1011A0003846FFF75DFF00B926700020EBE700002E
:1011B0002800002000080140001801402DE9F043FC
:1011C000174F0646002438887D884543B888A0F527
:1011D000D041043902D1B879012807D0002108464E
:1011E00003F0AAF903F018FC0E4815E00020B871CE
:1011F0004FF02A09A7F80A904FF02B08A7F80C80A7
:10120000014603F099F90120B871A7F80A80A7F800
:101210000C90E7E70680641CAC42FBD3BDE8F0838A
:10122000C80000200008006C2DE9F04F4A492A232D
:101230002B24898845F2105A4FF4305B4FF4285E16
:101240004FF448754FF0F00C49F241394FF4A07754
:1012500045F210364FF4F07280B13F484FF001086C
:10126000494580F806800780A0F802C001D0B1424D
:101270003ED12C2505814381848157E036484FF0CB
:101280000008494580F80680A0F800C0478006D0D5
:10129000A1F5D04CBCF1040C01D0B1420CD12C25ED
:1012A00005814381A1F5D0438481043B01D0B14243
:1012B00044D10780428041E0514507D1A0F808B0F1
:1012C000A0F80AE04FF42C5181810EE0A1F5C85638
:1012D000633E06D02221018120214181212181818B
:1012E0002CE02C210181448183810280458025E00E
:1012F000A1F5D04CBCF1040C09D051450BD1A0F89C
:1013000008B0A0F80AE04FF42C53838121E02C258B
:101310000581448109E0A1F5C85CBCF1630C12D0E1
:10132000222303812123438120238381A1F5D043FC
:10133000043B01D0B14201D102804780BDE8F04FAB
:10134000002003F025B84FF02C0CA0F808C0438112
:10135000848105804280E9E7C80000202DE9F04F34
:10136000DFF80C81934642460B46B8F804500C0A4D
:10137000DFF800A19189060A5289A5F513470AF101
:101380000209413F18D0A5F5A647103F14D0B7F584
:1013900000771CD04746A5F5C85CBE793F883F1A48
:1013A0007F1EBCF1630C27D0A5F5D04CBCF1040C1A
:1013B0003AD0012E4AD04AE0AAF800204A46A9F8BD
:1013C0000060C0B2A9F80000AAF800103AE0AAF83C
:1013D0000020A9F80060521CAAF80020C0B2A9F8A9
:1013E0000000AAF80010A9F80040491CAAF8001053
:1013F000D8B2A9F8000033E006B9B8B2AAF80020C4
:10140000050A4A46A9F80050C7B2A9F80070A9F821
:101410000050C0B2A9F80000AAF80010A9F80040D6
:10142000D8B2A9F800000DE0012E00D1B8B2AAF898
:101430000020050A4A46A9F80050C0B2A9F80000E9
:10144000AAF800101480D8B2108009E0B8B20146A2
:10145000104603F0EBFAB8F80C00194603F0E6FA70
:10146000B8F80810AAF80010A9F800B0BDE8F08F8D
:10147000C8000020FE07006C2DE9F8431F4D1F46F1
:101480008046AB88089EA3F5D040043802D1A879E5
:10149000012807D0A2EB0800401C85B20C46DFF8FB
:1014A000609028E02B880846991A0024AC713A46CF
:1014B0002A24A3EB08036C812B27491E5B1EAF81F6
:1014C00089B29BB20096FFF7D7FF0120A8716F8108
:1014D000AC81BDE8F8832146404603F02DF803F0C7
:1014E0009BFA0020494602E00E80401C80B2A842D0
:1014F000FAD3641CA4B2BC42EDD9EAE7C8000020CC
:101500000008006C2DE9F04F01210E029FB030461B
:1015100003F018FE01214FF4B47003F02BFE0127F5
:10152000ADF83C704FF010088DF83F8003248DF823
:101530003E400FA9FE48FFF719FD4CF23370ADF89D
:101540003C0018258DF83F508DF83E400FA9F94812
:10155000FFF70CFD4FF68070ADF83C008DF83F5062
:101560008DF83E400FA9F448FFF700FD41F201005D
:10157000ADF83C008DF83F508DF83E400FA9EF4884
:10158000FFF7F4FC00200F21CDE918011A901B9001
:101590001C901D901090CDE91104CDE91607149010
:1015A00006211590CDE90010CDE9020813900490B2
:1015B0003101CDE908010690059007908900CDE939
:1015C0000A010C9017A80D9010A80E906846FFF71E
:1015D00055FC01210620FFF741FC322004F0D4FA2B
:1015E000002002F0ABFED64DD64C49F24139A8801E
:1015F00046F6040A45F2103B45F210574FF6FF78C5
:10160000FF2804D3404502D0B0F5134F70D1D3204A
:10161000208002F089FEA88002F086FEA88002F0F9
:1016200083FE08EA00204146A88002F07DFEAA88D9
:101630001043A88048455BD0BF20208002F074FE94
:10164000A88002F071FEA88002F06EFEA88002F071
:101650006BFE01EA0020A88002F066FEAA88104313
:10166000A880504544D0D420208002F05DFEA880A0
:1016700002F05AFEA88002F057FE01EA0020A8807E
:1016800002F052FEAA881043A880584530D04FF48B
:101690005A40208002F048FEA8804FF45B40208032
:1016A00002F042FE01EA0020A8804FF45C40208056
:1016B00002F03AFEAA881043A880B0F5004F7DD012
:1016C000B84215D0A120208002F02EFEA88002F0A2
:1016D0002BFE01EA0020A88002F026FEA98808431C
:1016E000A0F5AE41A880613902D141F66310A8800F
:1016F000A98895A0FEF7E2FDA888924DAD1C48454B
:101700007ED1CF20208000202880C120288030205A
:101710002880ED202080642028800320288012204B
:10172000288081202880E8202080852028801020A3
:1017300028807A202880CB202080392028802C20E7
:101740002880002028803420288002202880F7204C
:10175000208020202880EA202080002028802880E7
:10176000C02020801B202880C120208001202880CC
:10177000C5202080302028802880C7202080B720E6
:10178000288036202080482028803A20208055203C
:101790002880B1202080002028801A202880B620B0
:1017A00020800A202880A2202880F220208000208B
:1017B0002880262020800120288000E051E0E020C1
:1017C00020800F2028802A20288028202880082098
:1017D00028800E2028800820288054202880A920D6
:1017E0002880432028800A2028800F20288000207D
:1017F0002880288028802880E1202080002000E0A8
:1018000031E0288015202880172028800720288094
:1018100011202880062028802B2028805620288010
:101820003C20288005202880102028800F20288038
:101830003F20288028800F2028802B202080002017
:1018400028802880012028803F2028802A2020808E
:101850000020288028802880EF20288011202080E8
:1018600084E0AF8044E7504576D1112020801420D9
:1018700004F08AF9D0202080072028804220288088
:101880001D202880D1202080002028801A20288038
:1018900009202880D2202080012028802220288032
:1018A000C0202080102028803B2028800020288015
:1018B0000220288011202880C52020800320288035
:1018C000C8202080002028802520288021202880F2
:1018D00005202880002028800A2028806520288074
:1018E0002520288077202880502028800F202880DD
:1018F00000202880F820208001202880FE202080E1
:10190000002028800220288020202080362020806F
:10191000082028803A202080552028802B202080F5
:10192000002028802880012028803F20288014E083
:10193000000C01400014014000180140002001404B
:10194000C8000020FE07006C204C43442049443A64
:1019500025780D0A000000000EE02A2020800020DB
:101960002880288001202880DF202880782004F02B
:101970000BF9292001F02DBC58457DD1ED202080A8
:1019800001202880FE202880EE202080DE20288074
:1019900021202880F120208001202880DF20208045
:1019A00010202880C42020808F202880C6202080FE
:1019B00000202880E220288028802880BF202080E6
:1019C000AA202880B02020800D2028800020288098
:1019D0000D202880002028801120288000202880C9
:1019E000192028800020288021202880002028809D
:1019F0002D202880002028803D202880002028805D
:101A00005D202880002028805D20288000202880FC
:101A1000B120208080202880002028808B202880F2
:101A2000002028809620288000202880B220208056
:101A30000020288028800220288000202880032081
:101A4000288000202880B320208000202880288043
:101A50002880288028802880288028802880288046
:101A60002880288028802880288028802880288036
:101A700028802880288000E0FEE3288028802880B5
:101A8000B42020808B202880002028809620288069
:101A900000202880A120288000202880B5202080D8
:101AA0000220288000202880032028800020288011
:101AB0000420288000202880B62020800020288054
:101AC0002880B72020800020288028803F20288080
:101AD000002028805E202880002028806420288024
:101AE000002028808C20288000202880AC2028809E
:101AF00000202880DC20288000202880702028807A
:101B0000002028809020288000202880EB2028803A
:101B100000202880DC20288000202880B820208019
:101B200000202880288028802880288028802880FD
:101B30002880BA2020802420288000202880288027
:101B40002880C12020802020288000202880542048
:101B5000288000202880FF20288000202880C220A4
:101B600020800A202880002028800420288000204F
:101B70002880C32020803C202880002028803A2014
:101B800028800020288039202880002028803720C5
:101B90002880002028803C202880002028803620B3
:101BA00028800020288032202880002028802F20B4
:101BB0002880002028802C202880002028802920B0
:101BC00028800020288026202880002028802420AB
:101BD000288000202880242028800020288023209E
:101BE0002880002028803C20288000202880362063
:101BF00028800020288032202880002028802F2064
:101C00002880002028802C2028800020288029205F
:101C1000288000202880262028800020288024205A
:101C2000288000202880242028800020288023204D
:101C3000288000202880C420208062202880002066
:101C400028800520288000202880842028800020EB
:101C50002880F0202880002028801820288000205C
:101C60002880A42028800020288018202880002098
:101C7000288050202880002028800C2028800020E8
:101C80002880172028800020288095202880002088
:101C90002880F320288000202880E620288000204B
:101CA0002880C520208032202880002028804420E1
:101CB0002880002028806520288000202880762029
:101CC0002880002028808820288000202880C620A6
:101CD00020802020288000202880172028800020B5
:101CE00028800120288000202880C7202080002014
:101CF0002880288028802880C820208000202880F4
:101D0000288028802880C9202080002028802880E2
:101D10002880288028802880288028802880288083
:101D2000288028802880288028802880E020208023
:101D300016202880002028801C2028800020288051
:101D4000212028800020288036202880002028801C
:101D500046202880002028805220288000202880CB
:101D600064202880002028807A2028800020288075
:101D70008B2028800020288099202880002028801F
:101D8000A820288000202880B920288000202880D2
:101D9000C420288000202880CA2028800020288095
:101DA000D220288000202880D92028800020288068
:101DB000E020288000202880F32028800020288030
:101DC000E120208016202880002028801C202880E8
:101DD000002028802220288000202880362028808B
:101DE000002028804520288000202880522028803C
:101DF0000020288064202880002028807A202880E5
:101E0000002028808B20288000202880992028808E
:101E100000202880A820288000202880B920288041
:101E200000202880C420288000202880CA20288004
:101E300000202880D220288000202880D8202880D8
:101E400000202880E020288000202880F32028809F
:101E500000202880E2202080052028800020288083
:101E60000B202880002028801B202880002028802C
:101E700034202880002028804420288000202880CA
:101E80004F20288000202880612028800020288082
:101E90007920288000202880882028800020288021
:101EA0009720288000202880A620288000202880D5
:101EB000B720288000202880C22028800020288089
:101EC000C720288000202880D1202880002028805A
:101ED000D620288000202880DD202880002028802F
:101EE000F320288000202880E320208005202880FF
:101EF000002028800A202880002028801C2028809C
:101F0000002028803320288000202880442028803A
:101F100000202880502028800020288062202880EF
:101F20000020288078202880002028808820288091
:101F3000002028809720288000202880A620288044
:101F400000202880B720288000202880C2202880F8
:101F500000202880C720288000202880D1202880C9
:101F600000202880D520288000202880DD2028809F
:101F700000202880F320288000202880E420208072
:101F8000012028800020288001202880002028802F
:101F900002202880002028802A20288000202880F5
:101FA0003C202880002028804B202880002028808A
:101FB0005D20288000202880742028800020288030
:101FC00084202880002028809320288000202880DA
:101FD000A220288000202880B3202880002028808C
:101FE000BE20288000202880C4202880002028804F
:101FF000CD20288000202880D32028800020288021
:10200000DD20288000202880F320288000202880E0
:10201000E520208000202880288028802880022039
:1020200028800020288029202880002028803C202B
:102030002880002028804B202880002028805D20D8
:102040002880002028807420288000202880842078
:102050002880002028809320288000202880A2202B
:10206000288000202880B320288000202880BE20DF
:10207000288000202880C420288000202880CD20AF
:10208000288000202880D320288000202880DC2081
:10209000288000202880F320288000202880E62047
:1020A00020801120288000202880342028800020D3
:1020B0002880562028800020288076202880002034
:1020C0002880772028800020288066202880002013
:1020D00028808820288000202880992028800020BF
:1020E0002880BB202880002028809920288000207C
:1020F0002880662028800020288055202880002005
:102100002880552028800020288045202880002015
:102110002880432028800020288044202880002018
:102120002880E72020803220288000202880552029
:1021300028800020288076202880002028806620A3
:1021400028800020288067202880002028806720A1
:10215000288000202880872028800020288099203F
:10216000288000202880BB202880002028809920FB
:102170002880002028807720288000202880442084
:1021800028800020288056202880002028802320B6
:1021900028800020288033202880002028804520A7
:1021A000288000202880E8202080002028802880A7
:1021B00099202880002028808720288000202880DF
:1021C00088202880002028807720288000202880F0
:1021D00066202880002028808820288000202880F1
:1021E000AA20288000202880BB202880002028806A
:1021F00099202880002028806620288000202880C0
:102200005520288000202880552028800020288004
:102210004420288000202880442028800020288016
:102220005520288000202880E9202080AA202880AE
:1022300000202880288028802080AA202880CF2085
:1022400020800020288028802880288028802880DE
:10225000288028802880288028802880288028803E
:10226000288028802880F02020800020288050208E
:1022700028800020288000E02CE028802880F3209F
:10228000208000202880F92020800620288010202F
:10229000288029202880002028803A20208055206E
:1022A000288011202080642003F06EFC29202080EB
:1022B000352020800020288051202080FF20288089
:1022C000532020802C2028805520208082202880A8
:1022D0002C20FCE3B8427DD14FF4704355211846C1
:1022E00002F0A4FB4FF20105AA21284602F09EFB52
:1022F0006E1C5221304602F099FBAF1C0821384673
:1023000002F094FB4FF204090121484602F08EFBD3
:102310000D214FF4304002F089FB0D214BF20100FA
:1023200002F084FB0D214BF2020002F07FFB4FF420
:10233000364A3421504602F079FB34214BF20160D9
:1023400002F074FB34214BF2026002F06FFB4FF499
:10235000314B0D21584602F069FB0D214BF2011063
:1023600002F064FB0D214BF2021002F05FFB3421FE
:102370004FF4374002F05AFB34214BF2017002F067
:1023800055FB34214BF2027002F050FB00214FF458
:10239000324002F04BFB00214BF2012002F046FBE1
:1023A00000214BF2022002F041FB24214FF438407F
:1023B00002F03CFB24214BF6010002F037FB242104
:1023C0004BF6020002F032FB01214FF43F4002F0D5
:1023D0002DFB00E0FEE30F214FF4334002F026FB1B
:1023E0000F214BF2013002F021FB0F214BF20230A2
:1023F00002F01CFB34214FF4394002F017FB34216A
:102400004BF6011002F012FB34214BF6021002F0E1
:102410000DFB08214FF4354002F008FB08214BF278
:10242000015002F003FB08214BF2025002F0FEFAC9
:1024300003214FF4424002F0F9FA24214FF43A40CC
:1024400002F0F4FA24214BF6012002F0EFFA2421E5
:102450004BF6022002F0EAFA00214FF43C4002F071
:10246000E5FA78214BF6014002F0E0FA00214BF644
:10247000024002F0DBFA00214FF43D4002F0D6FAB0
:1024800078214BF6015002F0D1FA00214BF60250B0
:1024900002F0CCFA00214FF43E4002F0C7FA64216A
:1024A0004BF6016002F0C2FA00214FF4514002F0F5
:1024B000BDFA33214DF2011002F0B8FA00214DF2BD
:1024C000021002F0B3FA34214DF2031002F0AEFA1A
:1024D00000214DF2041002F0A9FA3A214DF2051044
:1024E00002F0A4FA00214DF2061002F09FFA4A21F0
:1024F0004DF2071002F09AFA00214DF2081002F096
:1025000095FA5C214DF2091002F090FA00214DF28B
:102510000A1002F08BFA81214DF20B1002F086FABC
:1025200000214DF20C1002F081FAA6214DF20D109F
:1025300002F07CFA00214DF20E1002F077FAE5214C
:102540004DF20F1002F072FA01214DF2101002F05C
:102550006DFA13214DF2111002F068FA01214DF2CB
:10256000121002F063FA54214DF2131002F05EFAD9
:1025700001214DF2141002F059FA82214DF215108A
:1025800002F054FA01214DF2161002F04FFACA215E
:102590004DF2171002F04AFA02214DF2181002F023
:1025A00045FA00214DF2191002F040FA02214DF2D5
:1025B0001A1002F03BFA01214DF21B1002F036FA1C
:1025C00002214DF21C1002F031FA34214DF21D109F
:1025D00002F02CFA02214DF21E1002F027FA6721B8
:1025E0004DF21F1002F022FA02214DF2201002F0EB
:1025F0001DFA84214DF2211002F018FA02214DF249
:10260000221002F013FAA4214DF2231002F00EFA68
:1026100002214DF2241002F009FAB7214DF22510E3
:1026200002F004FA02214DF2261002F0FFF9CF2148
:102630004DF2271002F0FAF902214DF2281002F0B3
:10264000F5F9DE214DF2291002F0F0F902214DF2E8
:102650002A1002F0EBF9F2214DF22B1002F0E6F90C
:1026600002214DF22C1002F0E1F9FE214DF22D1065
:1026700002F0DCF903214DF22E1002F0D7F91021FF
:102680004DF22F1002F0D2F903214DF2301002F07A
:10269000CDF933214DF2311002F0C8F903214DF28A
:1026A000321002F0C3F96D214DF2331002F0BEF981
:1026B00000214FF4524002F0B9F933214DF20120CC
:1026C00002F0B4F900214DF2022002F0AFF93421FA
:1026D0004DF2032002F0AAF900214DF2042002F08D
:1026E000A5F93A214DF2052002F0A0F900214DF2A2
:1026F000062002F09BF94A214DF2072002F096F9DC
:1027000000214DF2082002F091F95C214DF20920E0
:1027100002F08CF900214DF20A2002F087F98121A4
:102720004DF20B2002F082F900214DF20C2002F054
:102730007DF9A6214DF20D2002F078F900214DF22D
:102740000E2002F073F9E5214DF20F2002F06EF930
:1027500001214DF2102002F069F913214DF21120F0
:1027600002F064F901214DF2122002F05FF95421C8
:102770004DF2132002F05AF901214DF2142002F01B
:1027800055F982214DF2152002F050F901214DF248
:10279000162002F04BF9CA214DF2172002F046F93B
:1027A00002214DF2182002F041F900214DF21920CA
:1027B00002F03CF902214DF21A2002F037F9012112
:1027C0004DF21B2002F032F902214DF21C2002F0E2
:1027D0002DF934214DF21D2002F028F902214DF28D
:1027E0001E2002F023F967214DF21F2002F01EF98E
:1027F00002214DF2202002F019F984214DF221200E
:1028000002F014F902214DF2222002F00FF9A42166
:102810004DF2232002F00AF902214DF2242002F0A9
:1028200005F9B7214DF2252002F000F902214DF201
:10283000262002F0FBF8CF214DF2272002F0F6F817
:1028400002214DF2282002F0F1F8DE214DF229207C
:1028500002F0ECF802214DF22A2002F0E7F8F22112
:102860004DF22B2002F0E2F802214DF22C2002F072
:10287000DDF8FE214DF22D2002F0D8F803214DF2B3
:102880002E2002F0D3F810214DF22F2002F0CEF8C6
:1028900003214DF2302002F0C9F833214DF23120EE
:1028A00002F0C4F803214DF2322002F0BFF86D218E
:1028B0004DF2332002F0BAF800214FF4534002F0F9
:1028C000B5F833214DF2013002F0B0F800214DF29D
:1028D000023002F0ABF834214DF2033002F0A6F8DA
:1028E00000214DF2043002F0A1F83A214DF20530FA
:1028F00002F09CF800214DF2063002F097F84A21D0
:102900004DF2073002F092F800214DF2083002F04B
:102910008DF85C214DF2093002F088F800214DF26B
:102920000A3002F083F881214DF20B3002F07EF87C
:1029300000214DF20C3002F079F8A6214DF20D3055
:1029400002F074F800214DF20E3002F06FF8E5212C
:102950004DF20F3002F06AF801214DF2103002F012
:1029600065F813214DF2113002F060F801214DF2AB
:10297000123002F05BF854214DF2133002F056F899
:1029800001214DF2143002F051F882214DF2153040
:1029900002F04CF801214DF2163002F047F8CA213E
:1029A0004DF2173002F042F802214DF2183002F0D9
:1029B0003DF800214DF2193002F038F802214DF2B5
:1029C0001A3002F033F801214DF21B3002F02EF8DC
:1029D00002214DF21C3002F029F834214DF21D3055
:1029E00002F024F802214DF21E3002F01FF8672198
:1029F0004DF21F3002F01AF802214DF2203002F0A1
:102A000015F884214DF2213002F010F802214DF228
:102A1000223002F00BF8A4214DF2233002F006F828
:102A200002214DF2243002F001F8B7214DF2253099
:102A300001F0FCFF02214DF2263001F0F7FFCF211B
:102A40004DF2273001F0F2FF02214DF2283001F063
:102A5000EDFFDE214DF2293001F0E8FF02214DF2B9
:102A60002A3001F0E3FFF2214DF22B3001F0DEFFBE
:102A700002214DF22C3001F0D9FFFE214DF22D3014
:102A800001F0D4FF03214DF22E3001F0CFFF1021D1
:102A90004DF22F3001F0CAFF03214DF2303001F02A
:102AA000C5FF33214DF2313001F0C0FF03214DF25B
:102AB000323001F0BBFF6D214DF2333001F0B6FF33
:102AC00000214FF4544001F0B1FF332100E080E3D6
:102AD0004DF2014001F0AAFF00214DF2024001F049
:102AE000A5FF34214DF2034001F0A0FF00214DF27B
:102AF000044001F09BFF3A214DF2054001F096FFA2
:102B000000214DF2064001F091FF4A214DF20740AD
:102B100001F08CFF00214DF2084001F087FF5C219D
:102B20004DF2094001F082FF00214DF20A4001F010
:102B30007DFF81214DF20B4001F078FF00214DF225
:102B40000C4001F073FFA6214DF20D4001F06EFF25
:102B500000214DF20E4001F069FFE5214DF20F40DA
:102B600001F064FF01214DF2104001F05FFF1321DD
:102B70004DF2114001F05AFF01214DF2124001F0D7
:102B800055FF54214DF2134001F050FF01214DF249
:102B9000144001F04BFF82214DF2154001F046FF39
:102BA00001214DF2164001F041FFCA214DF21740BC
:102BB00001F03CFF02214DF2184001F037FF0021E7
:102BC0004DF2194001F032FF02214DF21A4001F09E
:102BD0002DFF00E0FFE201214DF21B4001F026FF36
:102BE00002214DF21C4001F021FF34214DF21D4025
:102BF00001F01CFF02214DF21E4001F017FF67217A
:102C00004DF21F4001F012FF02214DF2204001F071
:102C10000DFF84214DF2214001F008FF02214DF209
:102C2000224001F003FFA4214DF2234001F0FEFEFB
:102C300002214DF2244001F0F9FEB7214DF225406A
:102C400001F0F4FE02214DF2264001F0EFFECF210B
:102C50004DF2274001F0EAFE02214DF2284001F03A
:102C6000E5FEDE214DF2294001F0E0FE02214DF2A9
:102C70002A4001F0DBFEF2214DF22B4001F0D6FE9E
:102C800002214DF22C4001F0D1FEFE214DF22D40EB
:102C900001F0CCFE03214DF22E4001F0C7FE1021C1
:102CA0004DF22F4001F0C2FE03214DF2304001F001
:102CB000BDFE33214DF2314001F0B8FE03214DF24B
:102CC000324001F0B3FE6D214DF2334001F0AEFE13
:102CD00000214FF4554001F0A9FE33214DF201507F
:102CE00001F0A4FE00214DF2025001F09FFE3421BC
:102CF0004DF2035001F09AFE00214DF2045001F014
:102D000095FE3A214DF2055001F090FE00214DF262
:102D1000065001F08BFE4A214DF2075001F086FE6D
:102D200000214DF2085001F081FE5C214DF2095066
:102D300001F07CFE00214DF20A5001F077FE812166
:102D40004DF20B5001F072FE00214DF20C5001F0DB
:102D50006DFEA6214DF20D5001F068FE00214DF2EE
:102D60000E5001F063FEE5214DF20F5001F05EFEC2
:102D700001214DF2105001F059FE13214DF2115076
:102D800001F054FE01214DF2125001F04FFE54218A
:102D90004DF2135001F04AFE01214DF2145001F0A2
:102DA00045FE82214DF2155001F040FE01214DF209
:102DB000165001F03BFECA214DF2175001F036FECD
:102DC00002214DF2185001F031FE00214DF2195050
:102DD00001F02CFE02214DF21A5001F027FE0121D4
:102DE0004DF21B5001F022FE02214DF21C5001F069
:102DF0001DFE34214DF21D5001F018FE02214DF24E
:102E00001E5001F013FE67214DF21F5001F00EFE1F
:102E100002214DF2205001F009FE84214DF2215093
:102E200001F004FE02214DF2225001F0FFFDA42129
:102E30004DF2235001F0FAFD02214DF2245001F031
:102E4000F5FDB7214DF2255001F0F0FD02214DF2C4
:102E5000265001F0EBFDCF214DF2275001F0E6FDA9
:102E600002214DF2285001F0E1FDDE214DF2295002
:102E700001F0DCFD02214DF22A5001F0D7FDF221D4
:102E80004DF22B5001F0D2FD02214DF22C5001F0F9
:102E9000CDFDFE214DF22D5001F0C8FD03214DF274
:102EA0002E5001F0C3FD10214DF22F5001F0BEFD58
:102EB00003214DF2305001F0B9FD33214DF2315074
:102EC00001F0B4FD03214DF2325001F0AFFD6D2150
:102ED0004DF2335001F0AAFD00214FF4564001F0AD
:102EE000A5FD33214DF2016001F0A0FD00214DF25E
:102EF000026001F09BFD34214DF2036001F096FD6C
:102F000000214DF2046001F091FD3A214DF205607F
:102F100001F08CFD00214DF2066001F087FD4A2191
:102F20004DF2076001F082FD00214DF2086001F0D2
:102F30007DFD5C214DF2096001F078FD00214DF22C
:102F40000A6001F073FD81214DF20B6001F06EFD0E
:102F500000214DF20C6001F069FDA6214DF20D60DB
:102F600001F064FD00214DF20E6001F05FFDE521EE
:102F70004DF20F6001F05AFD01214DF2106001F099
:102F800055FD13214DF2116001F050FD01214DF26C
:102F9000126001F04BFD54214DF2136001F046FD2B
:102FA00001214DF2146001F041FD82214DF21560C6
:102FB00001F03CFD01214DF2166001F037FDCA2100
:102FC0004DF2176001F032FD02214DF2186001F060
:102FD0002DFD00214DF2196001F028FD02214DF276
:102FE0001A6001F023FD01214DF21B6001F01EFD6E
:102FF00002214DF21C6001F019FD34214DF21D60DB
:1030000001F014FD02214DF21E6001F00FFD672159
:103010004DF21F6001F00AFD02214DF2206001F027
:1030200005FD84214DF2216001F000FD02214DF2E9
:10303000226001F0FBFCA4214DF2236001F0F6FCBC
:1030400002214DF2246001F0F1FCB7214DF2256020
:1030500001F0ECFC02214DF2266001F0E7FCCF21EB
:103060004DF2276001F0E2FC02214DF2286001F0F0
:10307000DDFCDE214DF2296001F0D8FC02214DF289
:103080002A6001F0D3FCF2214DF22B6001F0CEFC5E
:1030900002214DF22C6001F0C9FCFE214DF22D60A1
:1030A00001F0C4FC03214DF22E6001F0BFFC1021A1
:1030B0004DF22F6001F0BAFC03214DF2306001F0B7
:1030C000B5FC33214DF2316001F0B0FC03214DF22B
:1030D000326001F0ABFC6D214DF2336001F0A6FCD3
:1030E0005521184601F0A2FCAA21284601F09EFCB9
:1030F0005221304601F09AFC0821384601F096FC36
:103100000021484601F092FCCC21584601F08EFC8B
:1031100000214BF2011001F089FC0521504601F01D
:1031200085FC70214FF4374001F080FC70214BF298
:10313000017001F07BFC01214FF4384001F076FC76
:1031400003214BF6010001F071FC03214BF6020054
:1031500001F06CFC03214BF6030001F067FC022137
:103160004FF43C4001F062FC00214BF6014001F0BD
:103170005DFC00214BF6024001F058FCD0214FF4D9
:10318000494001F053FC02214CF6011001F04EFCC5
:1031900050214CF6021001F049FC50214CF603106E
:1031A00001F044FC50214CF6041001F03FFC0021DA
:1031B0004FF4545001F03AFC55214FF4685001F09F
:1031C00035FC4FF488502080782002F0F9FC4FF451
:1031D00024502080FEE3A0F513414FF4E06940F253
:1031E0003F1A4FF4274B253924D040F20777C91EE8
:1031F0007DD04FF4887B08317AD0113979D0A0F591
:10320000A841083976D0A0F5A8514FF4407B053984
:1032100071D0B1F520416FD0B1F580516DD0A0F5DE
:103220008A4131396AD0091F69D0A0F5C851633984
:1032300066D0CFE747F6F001E52001F0F7FB314615
:10324000012001F0F3FB4946022001F0EFFB41F2BF
:103250003001032001F0EAFB0021042001F0E6FB2D
:1032600040F20221082001F0E1FB0021092001F0D9
:10327000DDFB00210A2001F0D9FB00210C2001F028
:10328000D5FB00210D2001F0D1FB00210F2001F022
:10329000CDFB0021102001F0C9FB0721112001F016
:1032A000C5FB0021122001F0C1FB0021132001F019
:1032B000BDFB0021072001F0B9FB41F29061102015
:1032C00001F0B4FB40F22721112001F0AFFB9D215A
:1032D000122001F0ABFB4FF4C851132001F0A6FB04
:1032E0002521292001F0A2FB0D212B2009E078E007
:1032F00034E1D9E1AFE24AE3FEE3FEE3FEE3FEE3BD
:10330000FEE301F093FB0721302001F08FFB40F238
:103310000331312001F08AFB0321322001F086FBCA
:1033200040F20621352001F081FB0821362001F012
:103330007DFB40F20641372001F078FB4FF44171EC
:10334000382001F073FB0721392001F06FFB40F2B8
:1033500002613C2001F06AFB08213D2001F066FB80
:103360000021502001F062FBEF21512001F05EFBB3
:103370000021522001F05AFB5146532001F056FB28
:103380005946602001F052FB0121612001F04EFB03
:1033900000216A2001F04AFB0021802001F046FB59
:1033A0000021812001F042FB0021822001F03EFB40
:1033B0000021832001F03AFB0021842001F036FB3C
:1033C0000021852001F032FB1021902001F02EFB1E
:1033D0004FF4C061922001F029FB40F23311072025
:1033E000FEE341F28F01EC2001F020FB41F2342199
:1033F000EF2001F01BFB3146012001F017FB49468D
:10340000022001F013FB41F23001032001F00EFB1A
:103410000021042001F00AFB40F20221082001F003
:1034200005FB0021092001F001FB00210A2001F029
:10343000FDFA01210C2001F0F9FA00210D2001F024
:10344000F5FA00210F2001F0F1FA0021102001F01F
:10345000EDFA0721112001F0E9FA0021122001F014
:10346000E5FA0021132001F0E1FA0121072001F023
:10347000DDFA322002F088FB41F29041102001F089
:10348000D5FA40F22721112001F0D0FA322002F0C3
:103490007BFB8A21122001F0C9FA322002F074FB72
:1034A0004FF4D051132001F0C1FA0621292001F078
:1034B000BDFA0D212B2001F0B9FA322002F064FB95
:1034C0000021202001F0B2FA0021212001F0AEFA03
:1034D000322002F059FB0021302001F0A7FA40F21F
:1034E0000461312001F0A2FA40F20531322001F0EE
:1034F0009DFA0021352001F099FA40F60941362065
:1035000001F094FA4FF40171372001F08FFA40F284
:103510000131382001F08AFA3946392001F086FA63
:1035200000213C2001F082FA40F60A213D2001F002
:103530007DFA322002F028FB0021502001F076FABB
:10354000EF21512001F072FA0021522001F06EFAB1
:103550005146532001F06AFA594651E100210846CC
:1035600001F064FA3146012001F060FA4946022078
:1035700001F05CFA41F23001032001F057FA00211A
:10358000042001F053FA40F20221082001F04EFA23
:103590000021092001F04AFA00210A2001F046FA30
:1035A00001210C2001F042FA00210D2001F03EFA29
:1035B00000210F2001F03AFA322002F0E5FA40F241
:1035C0000111072001F032FA322002F0DDFA4FF447
:1035D0008651102001F02AFA0721112001F026FA65
:1035E0005B465946122001F021FA4FF43061132056
:1035F00001F01CFA0021292001F018FA44F2100110
:103600002B2001F013FA0021502001F00FFAEF21D6
:10361000512001F00BFA0021522001F007FA514627
:10362000532001F003FA4FF41C51602001F0FEF921
:103630000121612001F0FAF900216A2001F0F6F978
:103640000021802001F0F2F90021812001F0EEF943
:103650000021822001F0EAF90021832001F0E6F93F
:103660000021842001F0E2F90021852001F0DEF93B
:103670001021902001F0DAF90021922001F0D6F912
:103680000121932001F0D2F91946952001F0CEF9DD
:103690000021972001F0CAF90021982001F0C6F915
:1036A00040F27311072084E341F21401E72001F096
:1036B000BDF93146012001F0B9F94FF40071022043
:1036C00001F0B4F941F23801032001F0AFF940F202
:1036D0000221082001F0AAF90021092001F0A6F931
:1036E00000210A2001F0A2F900210C2001F09EF92E
:1036F00000210D2001F09AF900210F2001F096F928
:103700000021102001F092F90721112001F08EF91B
:103710000021122001F08AF90021132001F086F91E
:10372000C82002F031FA41F29061102001F07EF9D8
:1037300040F22721112001F079F9322002F024FA19
:103740000C21122001F072F9322002F01DFA4FF420
:103750000061132001F06AF91121292001F066F9B6
:103760000B212B2001F062F9322002F00DFA00212A
:10377000202001F05BF953465146212001F056F913
:103780000021302001F052F94FF48374214631209A
:1037900001F04CF90021322001F048F94FF4017199
:1037A000352001F043F941F20A61362001F03EF97B
:1037B0003946372001F03AF92146382001F036F930
:1037C0003946392001F032F940F202413C2001F043
:1037D0002DF940F60F413D2001F028F9002150203D
:1037E00001F024F9EF21512001F020F900215220AD
:1037F00001F01CF91946532001F018F94FF41C513F
:10380000602001F013F90121612001F00FF900217E
:103810006A2001F00BF90021802001F007F9002156
:10382000812001F003F90021822001F0FFF800213E
:10383000832001F0FBF80021842001F0F7F800213B
:10384000852001F0F3F81021902001F0EFF84FF4FB
:10385000C0619220FEE33146012001F0E7F84946BD
:10386000022001F0E3F841F23001032001F0DEF81C
:103870000021042001F0DAF840F20721082001F0CD
:10388000D5F80021092001F0D1F800210A2001F02B
:10389000CDF800210C2001F0C9F800210D2001F025
:1038A000C5F800210F2001F0C1F8142002F06CF9D6
:1038B00041F2B061102001F0B9F80121112001F0AE
:1038C000B5F80121172001F0B1F84FF49C711220D6
:1038D00001F0ACF84FF40061132001F0A7F80921C2
:1038E000292001F0A3F809212A2001F09FF80021E6
:1038F000A42001F09BF80021502001F097F8EF215F
:10390000512001F093F80021522001F08FF8514628
:10391000532001F08BF84FF41C51602001F086F821
:103920000121612001F082F800216A2001F07EF877
:103930000021802001F07AF80021812001F076F842
:103940000021822001F072F80021832001F06EF83E
:103950000021842001F06AF80021852001F066F83A
:103960001321902001F062F80021922001F05EF80E
:103970000321932001F05AF85946952001F056F89A
:1039800040F27311072001F051F8322010E10021BC
:10399000072001F04BF8322002F0F6F84FF48E7158
:1039A000122001F043F80121A42001F03FF80F217B
:1039B000082001F03BF808210A2001F037F808211F
:1039C0000D2001F033F83946302001F02FF807219F
:1039D000312000E06EE301F029F840F2036132206B
:1039E00001F024F84C464946332001F01FF840F21C
:1039F0000221342001F01AF80221352001F016F8D6
:103A000041F60F71362001F011F83946372001F0E8
:103A10000DF80021382001F009F80021392001F0CB
:103A200005F839463A2001F001F800213B2000F06A
:103A3000FDFF07213C2000F0F9FF00213D2000F0B0
:103A4000F5FF322002F0A0F80121072000F0EEFF80
:103A50000121172000F0EAFF322002F095F84FF420
:103A6000BD51102000F0E2FF40F21721112000F0BC
:103A7000DDFF4FF48F71122000F0D8FF4FF470611A
:103A8000132000F0D3FF00212A2000F0CFFF0A21ED
:103A9000292000F0CBFF4FF49F71122000F0C6FFE9
:103AA0000021502000F0C2FFEF21512000F0BEFFA6
:103AB0000021522000F0BAFF5146532000F0B6FF1B
:103AC0004FF41C51602000F0B1FF0121612000F093
:103AD000ADFF00216A2000F0A9FF0021802000F046
:103AE000A5FF0021812000F0A1FF0021822000F02D
:103AF0009DFF0021832004E05DE05BE123E2DAE248
:103B000081E300F093FF0021842000F08FFF00216B
:103B1000852000F08BFF1321902000F087FF59468D
:103B2000922000F083FF0521932000F07FFF002109
:103B3000952000F07BFF0021972000F077FF002107
:103B4000982000F073FF3146012000F06FFF2146FE
:103B5000022000F06BFF41F23801032000F066FF05
:103B60000021042000F062FF00210C2000F05EFF25
:103B700000210F2000F05AFF0021202000F056FF06
:103B80000021212000F052FF2121072000F04EFFEC
:103B9000142001F0F9FF6121072000F047FF1420F5
:103BA00001F0F2FF40F27311072000F03FFF1420F4
:103BB00001F0EAFFA1E30021084600F037FF0021F1
:103BC000084600F033FF0021084600F02FFF0021D7
:103BD000084600F02BFF0121A42000F027FF00E0A1
:103BE000E3E0142001F0D0FF4FF41C542146602084
:103BF00000F01CFF40F202252946082000F016FFC5
:103C00004FF40571302000F011FF43F2157131209F
:103C100000F00CFF40F20461322000F007FF40F694
:103C20001661332000F002FF42F21121342000F02F
:103C3000FDFE4FF4A851352000F0F8FE48F2075180
:103C4000362000F0F3FE41F20741372000F0EEFE8F
:103C500041F20341382000F0E9FE2021392000F034
:103C6000E5FE1A21902000F0E1FE0021102000F076
:103C7000DDFE0721112000F0D9FE0021122000F006
:103C8000D5FE0021132000F0D1FE142001F07CFFAE
:103C90004FF4E661102000F0C9FE40F23711112008
:103CA00000F0C4FE142001F06FFF4FF4DC7112200D
:103CB00000F0BCFE142001F067FF4FF47061132088
:103CC00000F0B4FE80212A2000F0B0FE4821292017
:103CD00000F0ACFE142001F057FF3146012000F047
:103CE000A5FE4946022000F0A1FE41F23801032062
:103CF00000F09CFE2946082000F098FE00210A20D2
:103D000000F094FE00210C2000F090FE00210D2018
:103D100000F08CFE30210E2000F088FE00215020A3
:103D200000F084FEEF21512000F080FE002152209F
:103D300000F07CFE5146532000F078FE21466020C2
:103D400000F074FE0121612000F070FE00216A2065
:103D500000F06CFE1121902000F068FE4FF4C0616D
:103D6000922000F063FE40F20241932000F05EFEDC
:103D70000221942000F05AFE142001F005FF0121D9
:103D8000072000F053FE142001F0FEFE6121072001
:103D900000F04CFE40F27311072000F047FE0021B6
:103DA000202000F043FE0021212000F03FFE2221D0
:103DB00000207DE10021084600F038FE0021084681
:103DC00000F034FE142001F0DFFE0021084600F070
:103DD0002DFE0021084600F029FE0021084600F0D3
:103DE00025FE0021084600F021FE0121A42000F05C
:103DF0001DFE142001F0C8FE4FF41C51602000F09D
:103E000015FE40F60601082000F010FE40F2037394
:103E10001946302000F00AFE0121312000F006FE94
:103E20000421322000F002FE4FF48171332000F0B3
:103E3000FDFD5C465946342000F0F8FD40F20311C8
:103E4000352000F0F3FD1F21362000F0EFFD19466C
:103E5000372000F0EBFD0121382000F0E7FD0421C0
:103E6000392000F0E3FD1521902000F0DFFD4FF434
:103E70008261102000F0DAFD40F24721112000F0AD
:103E8000D5FD4FF4DE71122000F0D0FD4FF46061DB
:103E9000132000F0CBFD782001F076FE31460120A2
:103EA00000F0C4FD4FF40071022000F0BFFD41F2AC
:103EB0003001032000F0BAFD08210A2000F0B6FD11
:103EC00000210C2000F0B2FD20210E2000F0AEFDFC
:103ED00000210F2000F0AAFD0021202000F0A6FD07
:103EE0000021212000F0A2FD3D212A2000F09EFDAE
:103EF000142001F049FE2D21292000F097FD00211A
:103F0000502000F093FD4DF2EF01512000F08EFDA6
:103F10000021522000F08AFD5146532000F086FD1A
:103F20000021612000F082FD00216A2000F07EFD6A
:103F30002146922000F07AFD0521932000F076FDC5
:103F40003146FFF7AFBB0121002000F06FFD0A20D2
:103F500001F01AFE41F22861102000F067FD0E21E9
:103F6000122000F063FD40F63921132000F05EFDC1
:103F70000A2001F009FE4021112000F057FD5021D8
:103F8000152000F053FD0A2001F0FEFD1E21122035
:103F900000F04CFD0A2001F0F7FD4FF4B151102064
:103FA00000F044FD42F63921132000F03FFD0A20C5
:103FB00001F0EAFD3146012000F038FD59460220AB
:103FC00000F034FD41F23801032000F02FFD40F2F3
:103FD0000221082000F02AFD08210A2000F026FD19
:103FE0000021302000F022FD40F20241312000F09B
:103FF0001DFD4FF48371322000F018FD40F2035193
:10400000332000F013FD4FF48271342000F00EFDD8
:1040100040F20131352000F009FD3946362000F02C
:1040200005FD40F20531372000F000FD4FF402712C
:10403000382000F0FBFC40F60B71392000F0F6FC54
:104040000221412000F0F2FC4FF41C51602000F0EE
:10405000EDFC00E0D2E00121612000F0E7FC4FF42C
:104060000471902000F0E2FC4FF48571922000F082
:10407000DDFC0421932000F0D9FC3146A02000F0A3
:10408000D5FC0121072000F0D1FC2121072000F000
:10409000CDFC2321072000F0C9FC3321072000F0CC
:1040A000C5FC40F23311072000F0C0FC0021A02025
:1040B00000F0BCFC21E13021152000F0B7FC1021FC
:1040C0009A2000F0B3FC2021112000F0AFFC43F255
:1040D0002841102000F0AAFC0221122000F0A6FCCA
:1040E00041F23801132000F0A1FC282001F04CFD22
:1040F0001221084600F09AFC282001F045FD43F209
:104100002041102000F092FC43F23801132000F00F
:104110008DFC462001F038FD0021302000F086FCA7
:1041200040F20241312000F081FC40F207313220A0
:1041300000F07CFC4FF44171332000F077FC042147
:10414000342000F073FC40F20141352000F06EFC99
:104150003946362000F06AFC40F20531372000F085
:1041600065FC4FF4C2631946382000F05FFC194625
:10417000392000F05BFC3146012000F057FC594625
:10418000022000F053FC41F23001032000F04EFC0D
:1041900040F60801082000F049FC08210A2000F040
:1041A00045FC4FF41C51602000F040FC01216120CF
:1041B00000F03CFC4FF49F71902000F037FC31463A
:1041C000922000F033FC3146932000F02FFC4FF496
:1041D0004051A02000F02AFC1021A32000F026FC72
:1041E0000121072000F022FC2121072000F01EFC05
:1041F0002321072000F01AFC3321072000F016FCD1
:1042000040F233119DE6E220208023202880022006
:10421000288004202880642001F0D2FCE020208047
:10422000012028800A2001F0AFFCE020208003203C
:1042300028800C2001F0A8FC012020800A2001F039
:10424000A3FCE620208003202880FF2028802880EF
:10425000B020208020202880002028800320288073
:1042600040F21F3028800120288040F2DF10288093
:1042700000202880B42020800420288040F21F40A5
:10428000288000202880D2202880002028802880B4
:1042900028802880B6202080022028804FF40370D8
:1042A00028800020288022202880092028800020C3
:1042B00028802880F020208003202880292020804A
:1042C000D020208000202880BE202080052028804B
:1042D000FE20288001202880FF20288000202880C0
:1042E000B82020800F20288001202880BA2020803C
:1042F00001202880642000F02DF80020FCF794FFB6
:1043000004490120C1F880014046FCF757FF1FB067
:10431000BDE8F08F008021420346012000E05843B1
:10432000491EC9B2FBD27047034808B50088ADF8F2
:104330000000BDF8000008BD0008006C044910B57D
:104340000880052001F03CFCBDE81040FFF7ECBF01
:10435000FE07006C0C4A10B5BE211180941C05218B
:10436000218003F0D2FB4FF06632084B03F0E0FBF4
:1043700003F09EFB208001202080FF202080002071
:104380002080208010BD0000FE07006C666604409F
:10439000F0B5674E00233146B279898846F60407A6
:1043A00041F66314012A01D02AB11DE0B9421BD0A5
:1043B000A14202D118E0A14216D1082814D2DFE8A8
:1043C00000F00406080A0C0E101206200CE007206C
:1043D0000AE0042008E0052006E0012004E00020B7
:1043E00002E0032000E00220A1F5134C45F2103258
:1043F00045F21055BCF1410C07D0B94205D09142AD
:1044000003D0A94201D0A14275D1082812D2DFE819
:1044100000F0110406080A0C0E1080230AE0402365
:1044200008E0C02306E0202304E0602302E0A0238C
:1044300000E0E023A94202D14FF4585000E03620BA
:10444000914205D0A94203D0A14201D043F0080314
:10445000B94201D143F00203194600F0E7FAB288ED
:10446000A2420AD098063088718802D5884202D3C9
:1044700003E0884201D9318070802E48811CAA4215
:104480007289028021D100230B80531C03800023FA
:104490000B80931C038033885B1E1C0A0C80D21C8B
:1044A0000280DAB20A80B289028000230B80531C9A
:1044B000038000230B80931C038073885B1E1C0AFF
:1044C0000C80D21C0280D8B212E000220A800A803E
:1044D0003288521E130A0B80D2B20A80B28902803F
:1044E0000020088008807088401E020A0A80C0B23E
:1044F0000880F0BDFFE7082812D2DFE800F00406CC
:1045000008110A0C0E1030230AE0102308E02023C3
:1045100006E0382304E0282302E0182300E0082303
:10452000BDE8F040032043F4805100F07FBA000062
:10453000C8000020FE07006C2DE9F04F4E4F0B46DF
:104540003A46BD880C0ADFF834B191895289A5F545
:1045500013464FEA102C0BF1020A413E1DD0A5F57F
:10456000A646103E19D03E46BE4696F806903688BE
:10457000A5F5D047A6EB0008A8F10108043F17D025
:10458000A5F5C857633F28D0A5F5AA477646103F42
:1045900051D0B9F1010F63D064E0ABF8002052466E
:1045A000AAF800C0C0B2AAF80000ABF800100FE0F3
:1045B000B9F1010F01D11FFA88F0ABF80020050A0C
:1045C0005246AAF80050C0B2AAF80000ABF800109A
:1045D0001480D8B21080BDE8F08FB9F1000F1BD065
:1045E000ABF800205246AAF800C0C0B2AAF80000FA
:1045F000761E300AAAF80000F0B21080ABF8001066
:1046000011461480D8B21080BEF80200401E020A83
:104610000A80C0B20880DEE71FFA88F0ABF80020FD
:1046200000265246AAF80060AAF80060060AAAF816
:104630000060C0B2E1E7ABF80020AAF800C0521C4D
:10464000ABF80020C0B2AAF80000ABF80010AAF83E
:104650000040491CABF80010D8B2AAF80000BAE735
:104660001FFA88F00146104600F0E0F9B089BDE875
:10467000F04F194600F0DAB9C8000020FE07006CC0
:104680002DE9FC4F044691464844401E86B2C818A6
:10469000401E83B2009004EB0900401EC0F3072EB9
:1046A000DFF850C100980D46C0F3072B6046BCF8F8
:1046B00004204FEA112881894089A2F513474FEA67
:1046C000142A413F10D0A2F5A647103F0CD0A2F506
:1046D000D047043F08D09CF8067041F6631C019750
:1046E000012F13D1624511D1434F3880B81CA0F877
:1046F00000A0E2B20280A0F800E0F2B202803980AD
:10470000A0F80080E9B2018059461CE0394F6245AB
:104710003F881DD1A7EB0902121B374C009B92B2B8
:104720009BB22080160AA01C0680D6B206804A449E
:10473000521E160A0680D2B202802180A0F80080A4
:10474000E9B20180190A0180D9B20180BDE8FC8F6D
:10475000A2F5A04CBCF5A26C1FD0019801283FD057
:10476000B04621462E4650204FF0510A4FF05209D4
:10477000532700F05BF94146504600F057F93146A7
:10478000484600F053F91946384600F04FF92946DB
:104790002046BDE8FC4FFFF7CFBE174A1080971C9C
:1047A000A7F800A000F1010CA2F800C0E4B23C8020
:1047B000841C1480A7F800E0C01C1080F0B2388080
:1047C0001180A7F80080481C1080E8B23880881C4F
:1047D0001080A7F800B0C91C1180D8B23880B5E7A6
:1047E000B81B401E86B2381B9846401E294683B22D
:1047F000B9E70000C8000020FE07006C2DE9F84F63
:1048000082461F460C468B46580700D0012000EB1D
:10481000D70079084843203AC0B202F0FF090026C9
:10482000009041E00C2F10D0102F12D0182F3ED145
:10483000204909EBC90001EB80004FF00008855DBD
:1048400028060AD51C4802880BE009EB49001B49E1
:10485000F1E71B4901EB0910EFE70A9828B9164860
:10486000428821465046FCF779FD6806050E15483A
:10487000641CA4B24088A04219D9A4EB0B00B84232
:1048800009D10AF101001FFA80FA0E485C4601883E
:1048900051450CD906E008F1010000F0FF08B8F11D
:1048A000080FCDD3761CF6B200988642BAD3BDE885
:1048B000F88F0000908700082A0000202C7D000857
:1048C000A0810008C80000202DE9FF4F81B000271B
:1048D000DDF838B01D46924680463C46B9464FEA60
:1048E0005B0627E0281B401EC1B20A20FFF714FD1B
:1048F000BAFBF0F00A21B0FBF1F201FB120027B97C
:10490000691E8C4201DA48B101273030C2B206FB81
:10491000048080B25B46CDF8009006E006FB048080
:1049200080B25B462022CDF800900299FFF766FF27
:10493000641CE4B2AC42D5D305B0BDE8F08F2DE9DC
:10494000F84F044600F0FF0810190D46DDE90A761D
:104950001FFA80FA58191FFA80F94FF0000B11E086
:10496000544502D3E819444685B24D450FD23B4623
:1049700029462046CDF800B0FFF740FF04EB570072
:1049800084B2761C3278A2F120005E28E8D9BDE816
:10499000F88F2DE9FF4F81B08046DDF83CA00E98DE
:1049A0004FF000091F4693464C460AF001054608A1
:1049B0002BE0381B401EC1B20A20FFF7ADFCBBFB49
:1049C000F0F00A21B0FBF1F201FB1200B9F1000F87
:1049D00005D1791E8C4202DA48B14FF0010930301E
:1049E000C2B206FB048080B200950E9B08E05FEA2D
:1049F0000A6006FB04800E9B80B200950AD5302227
:104A00000299FFF7FBFE641CE4B2BC42D1D305B0AF
:104A1000BDE8F08F2022F3E70248034900890880AF
:104A200070470000C8000020FE07006C024A10809A
:104A3000901C018070470000FE07006C7CB52A487E
:104A40000088FCF7BBFB102428A0CDE900402346DA
:104A5000C82296211E20FFF772FF274D1F2627A090
:104A60002E80CDE900401023C822AA211E20FFF786
:104A700066FF25A0CDE900401023C822BE211E20DC
:104A8000FFF75DFFF002288022A0CDE9004010234F
:104A9000C82232211E20FFF752FF24A0CDE900409A
:104AA0001023C82246211E20FFF749FF26A0CDE98A
:104AB00000401023C8225A211E20FFF740FF25A0E6
:104AC000CDE900401023C8226E211E20FFF737FFDA
:104AD0002E8023A0CDE900401023C82282211E2071
:104AE000FFF72DFF7CBD00002C000020444854310E
:104AF00031204F4B000000002A00002054656D70EB
:104B00003A20202E4300000048756D693A20202588
:104B10000000000057656C436F6D6520746F205373
:104B20006D617274486F6D65000000004B4559302F
:104B30003A4E4F4D414C204B4559313A43414D453A
:104B4000524120200000000043414D455241203A8F
:104B50004E4F0000323032302F312F313400000000
:104B60004C53454E535F56414C3A000038B5012135
:104B7000482000F0FFFA2024ADF8004010208DF806
:104B8000030003200B4D8DF8020069462846FCF710
:104B9000EDF920212846FCF76AFAADF80040064CF2
:104BA00069462046FCF7E2F920212046FCF75FFA2F
:104BB00038BD0000000C0140001801401CB521491F
:104BC0004FF47840102508801FA0CDE900502B46F7
:104BD000C82282211E20FFF7B2FE00271D4EDFF8FB
:104BE000788000F03BF8CDE90057044602460323E5
:104BF00082216E20FFF7CDFED6F8940150B100203F
:104C0000C6F894010A2000F0BFFF0F2C04D84FF41F
:104C1000967112E00120F3E71E2C01D896210CE0DA
:104C2000322C01D8822108E0462C01D8322104E040
:104C30005A2C01D81E2100E00021404600F05EFE03
:104C4000CFE700002A0000204C53454E535F5641E9
:104C50004C3A0000008021420004004070B500255D
:104C60002C460620FCF706FA0544052000F08CFFD0
:104C7000641CE4B20A2CF4D30A20B5FBF0F04FF424
:104C80007A61884200D908462821B0FBF1F0C0F1D2
:104C90006400C0B270BD000008B50121802000F0A2
:104CA00069FA4FF48070ADF8000000208DF8030021
:104CB00069460348FCF75AF9FBF720FE08BD0000DF
:104CC000001C0140FEE7704730B50F23C278017821
:104CD0000125F2B1144A126801F1E02102F4E06208
:104CE000C2F5E062120AC2F10404D3404278A24045
:104CF00084781C401443220181F80024007800F0DD
:104D00001F018D404009800000F1E020C0F80051F3
:104D100030BD01F01F0085404809800000F1E0200F
:104D2000C0F8805130BD00000CED00E0024908439E
:104D300002490860704700000000FA050CED00E031
:104D400010B5001D092815D2DFE800F01F1D121054
:104D50000E0C0A070500482100E03821062409E06E
:104D60002821FBE71821F9E70821F7E7082100E0EF
:104D700018210E249B2000F095FB2146BDE8104031
:104D8000AB2000F08FBB2821F3E73821F1E710B505
:104D9000011D08290BD804014034E1B2A72000F01E
:104DA00081FBE1B2BDE81040A82000F07BBB10BD44
:104DB000011D082906D8202101EB8000C1B29C20EA
:104DC00000F070BB70470000F8B50024012140F2EC
:104DD0003D1000F0CFF94FF48075ADF80050482633
:104DE0008DF803600320424F8DF802006946384673
:104DF000FCF7BCF829463846FCF739F91820ADF81D
:104E000000003C4F10258DF8035069463846FCF7EA
:104E1000ADF818213846FCF72AF9FF20ADF800005C
:104E20008DF8036069463448FCF7A0F84020ADF8DF
:104E30000000324E8DF8035069463046FCF796F874
:104E400040213046FCF713F94FF44046ADF80060BE
:104E50008DF803502A4D69462846FCF787F83146FD
:104E60002846FCF704F901212648FCF7CDF800F0AC
:104E7000E3F98021122000F015FB08B10120F8BDF4
:104E8000322000F081FE1C2000F068FA4FF6FF751A
:104E900005EA00261D2000F061FA40EA0601A1F5AE
:104EA000FE40A23803D018A0FBF708FAE6E70A2074
:104EB00000F054FA05EA00250B2000F04FFA40EA12
:104EC0000501A1F5EE40213804D012A0FBF7F6F958
:104ED0000220F8BD124D05EB4400417815F814008E
:104EE00000F0E0FA641CA4B2412CF4D30020F8BD19
:104EF00000080140000C0140001001400014014076
:104F000000200140000230004D49443A25640D0A5A
:104F1000000000004849443A25640D0A00000000E2
:104F2000EC94000810B5062847D2DFE800F003062D
:104F30001D27313CFF21132009E0FD21132000F043
:104F4000B1FA5A21012000F0ADFA5C2129E000F00D
:104F5000A9FA65210E2000F0A5FA00212D2000F00D
:104F6000A1FA00212E2024E0FD21132000F09AFA5E
:104F70005821012000F096FA602112E0FD21132053
:104F800000F090FA8421012000F08CFA4C2108E016
:104F9000FD21132000F086FA9621012000F082FA0C
:104FA00040210220D3E7FF21132000F07BFAE52106
:104FB0000E20BDE8104000F075BA10BD10B50728EE
:104FC00040D2DFE800F0040609131D273100062156
:104FD00003E04621A62031E02621A62000F062FA57
:104FE0008021602000F05EFA802126E01E21A620AC
:104FF00000F058FA8021602000F054FAC0211CE033
:105000001E21A62000F04EFA6021084600F04AFA60
:10501000602112E01E21A62000F044FAA0216020A9
:1050200000F040FA402108E01E21A62000F03AFAE4
:105030004021602000F036FAA0216120BDE8104038
:1050400000F030BA10BD00002DE9F05FDFF8D8B0F5
:105050009BF80000002865D00420FFF799F9334C35
:105060004FF4A075F02320886188A0F5A070F03976
:1050700001EBD17100EBD070C1F34F01C0F34F00D1
:105080002A46FFF7FDFAA088A0F5C851633910D170
:1050900020886188A0F5A070F03901EBD17100EB98
:1050A000D070C1F34F01C0F34F002B46F022FFF741
:1050B000E7FAFFF7B1FC1E484FF0000AC0F8B8A1AC
:1050C0001C4E10213160371F396031600122C0F859
:1050D000B8213960A946184DDFF8608054464FF674
:1050E000FF7300203160AA68396003EA0222316050
:1050F000D5F808C039600CF0FF0C4CEA020CA8F897
:1051000000C0401C4845EDD3641CF02CE9D30C488A
:105110008BF800A00178491C0170BDE8F05F002009
:10512000FFF736B9BDE8F09F32000020C80000202C
:1051300000002442140C0140001001400008006CE3
:105140002F000020044A0029516901D0014300E0EA
:10515000814351617047000000100240044A002959
:10516000D16901D0014300E08143D1617047000063
:1051700000100240044A0029916901D0014300E077
:10518000814391617047000000100240044A0029E9
:10519000D16801D0014300E08143D1607047000035
:1051A0000010024030B5204A5168204B11F00C012C
:1051B00003D0042901D0082901D0036012E051680E
:1051C000536801F470114FF0020413F4803F04EBB4
:1051D000914102D053689B0301D5154B00E0134B5E
:1051E0005943016051680F2303EA1111114B5C5CB4
:1051F0000168E14041605468072505EA14241C5DFC
:1052000021FA04F48460546805EAD4241B5DD94073
:10521000C1605268032303EA9232064B1B1F9A5C5B
:10522000B1FBF2F1016130BD0010024000127A00C2
:1052300000093D004400002038B501214FF4907072
:10524000FFF798FF4FF40055ADF8005048208DF857
:1052500003000320114C8DF8020069462046FBF73D
:1052600085FE29462046FBF702FF0820ADF8000026
:1052700010200B4D8DF8030069462846FBF776FE9B
:1052800008212846FBF7F3FE606820F47000606098
:10529000606840F44010606038BD000000200140AC
:1052A0000014014070B5322000F08AFC0C4D012042
:1052B000C5F8B4010B4EC6F88C01322005F5DA753D
:1052C00006F5C67600F07CFC00243460322000F045
:1052D00077FC2C60BDE87040322000F071BC00000B
:1052E00000002442008022422DE9F047184F00249C
:1052F000786820F470007860786840F40000786086
:10530000DFF85090144E08254FF00108A2463220D5
:1053100000F056FCC6F88C816006040ED9F8340102
:1053200008B1641CE4B2322000F04AFCC6F88CA13B
:105330006D1E15F0FF05EAD1786820F470007860E2
:10534000786840F4401078602046BDE8F08700009F
:1053500000200140000024420080224210B5044693
:1053600000F022F8422000F055F8642000F028FCFC
:10537000204600F04FF8642000F022FC00F02EF8E8
:10538000642000F01DFC00F00FF8432000F042F80C
:10539000642000F015FCFFF7A7FF0446FFF782FF2B
:1053A00000F01CF8204610BD70B50A4E0120C6F86A
:1053B000B401094DC5F88C01322005F5C67506F516
:1053C000DA7600F0FDFB00243460322000F0F8FBB8
:1053D0002C6070BD000024420080224270B50B4C4E
:1053E0000020C4F8B401322004F5DA7400F0E8FBC0
:1053F00007480125C0F88C51322000F0E1FB256000
:10540000BDE87040322000F0DBBB00000000244209
:10541000008022422DE9F04700241F4E1F4F054611
:10542000A0464FF00109280601D5484600E0404655
:10543000C6F8B4016806050E322000F0C1FBC7F8BB
:105440008C91322000F0BCFBC7F88C81641CE4B264
:10545000082CE8D3124C606820F47000606060682B
:1054600040F400006060322000F0AAFBC7F88C9185
:10547000322000F0A5FBD6F8340100B10120C7F8B6
:105480008C81616821F470016160616841F44011B0
:105490006160BDE8F08700000000244200802242E5
:1054A0000020014070B50D4606460024FFF77CFF42
:1054B0004220FFF7AFFF00B10124642000F080FB21
:1054C0003046FFF7A7FF00B10124642000F078FB0D
:1054D0002846FFF79FFF00B10124FFF77FFF20461A
:1054E00070BD00000CB500222648009201920168B0
:1054F00041F4803101604FF4A063016801F4003190
:1055000001910099491C0091019911B900999942A2
:10551000F3D10168890333D5012101911A490A6841
:1055200042F010020A600A6822F003020A600A6868
:1055300042F002020A60416841604168416041688E
:1055400041F480614160416821F47C11416041680F
:1055500041F4E8114160016841F080710160016827
:105560008901FCD5416821F003014160416841F0A7
:10557000020141604168C1F381010229FAD10CBDE9
:1055800001920CBD00100240002002404FF0E021CB
:105590000428086903D020F004000861704740F037
:1055A0000400FAE710B502F027F8012803D0BDE89F
:1055B000104001F015BD10BD0F4810B5016841F055
:1055C0000101016041680D4A1140416001680C4AC7
:1055D00011400160016821F480210160416821F4DB
:1055E000FE0141604FF41F018160FFF77BFF054919
:1055F0004FF00060086010BD001002400000FFF88E
:10560000FFFFF6FE08ED00E010B50A4C0121204630
:1056100000F00FF900280AD00121204600F0FAF826
:105620000549D1F8940118B10020C1F8940110BDCA
:105630000120FAE7000400400000234230B50D4687
:10564000044689B001210220FFF788FD01210920CD
:10565000FFF790FD01211D48FBF7D6FC2022ADF895
:105660001C2018228DF81F2003208DF81E0007A98A
:105670001748FBF77BFCADF81440ADF81050002440
:10568000144DADF81640ADF8124004A9284600F0BC
:1056900039F97020ADF800000120ADF80200ADF836
:1056A0000640ADF808406946284600F0DDF80821BC
:1056B000284600F019F90121284600F0A1F801213F
:1056C000284600F0AAF809B030BD000000081A0012
:1056D000000C01400004004070B51F4C1F4D2078A5
:1056E000000633D40121284600F0A3F838B1217810
:1056F000480604D5C843800612D0491C21700221F7
:10570000284600F096F808B3217848060FD541F0F6
:1057100080002070284600F08AF86080002112E0A6
:1057200041F0800020704FF6FF706080E7E70020B6
:10573000207060800146284600F0E2F820780221BF
:1057400040F040002070284600F087F82846BDE869
:105750007040032100F05EB82E000020000C0040D5
:1057600070B5094D0121284600F063F830B1074CAF
:1057700007A06178FAF7A2FD002060702846BDE816
:105780007040012100F046B8001000402E000020BB
:105790006672616D653A25646670730D0A000000DB
:1057A0007FB50D46044601211020FFF7D7FCADF868
:1057B00004400020ADF80050104CADF80600ADF8E4
:1057C00002006946204600F09DF801224121204652
:1057D00000F03BF80121204600F01FF836208DF83C
:1057E0000C0001208DF80D0003218DF80E108DF8AE
:1057F0000F0003A8FFF768FA7FBD0000001000400B
:105800000029018802D041F0800101E021F08001EF
:1058100001807047C943018270470029018802D086
:1058200041F0010101E021F0010101807047808E0B
:10583000704702460020138A92890B4202EA010255
:1058400002D0002A00D001207047002A828901D0AE
:105850000A4300E08A4382817047028C22F00202F0
:105860000A4302847047000070B5028C22F01002D7
:105870000284028C8388048B0D8824F4E6464FF65C
:10588000FF7404EA052535430E8922F0200204EA5C
:10589000061616434A8804EA02123243104EB042FA
:1058A00002D0104EB04215D122F080064A8923F46E
:1058B000406304EA0212324322F040068A8804EA76
:1058C000021232438E8904EA86061E43CB8904EA1B
:1058D0008303334383800583C9880187028470BDB5
:1058E000002C014000340140028B4FF6FF7322F47C
:1058F000006203EA01211143018370470187704769
:105900008184704730B502881B4C1C4DA0420DD0DD
:10591000A8420BD0B0F1804F08D0194B984205D067
:10592000184B984202D0184B984203D122F07003D2
:105930004A881A43154B984206D0154B984203D01B
:1059400022F44073CA881A4302808A8882850A88B2
:105950000285A0420AD0A84208D00E4A904205D043
:105960000D4A904202D00D4A904201D1097A018637
:105970000121818230BD0000002C01400034014033
:105980000004004000080040000C004000100040EF
:105990000014004000400140004401400048014024
:1059A00070B5154C40F22551204600F035F800281E
:1059B0000ED0204600F0BEF8104AC1B21088030491
:1059C00006D444044FF0000306D50A2901D0138001
:1059D00070BD40F400400DE00D2909D0C0F30D0466
:1059E000074D401C80B229551080C728EFD870BDE4
:1059F00040F48040108070BD003801403800002025
:105A0000D60000200029818902D041F4005101E034
:105A100021F400518181704770B501F01F05012606
:105A20000024C1F3421306FA05F2012B0FD0022B1A
:105A30000FD0838A4FEA11210088134206FA01F63B
:105A400000EA060001D000B10124204670BD838920
:105A5000F0E7038AEEE710B5C1F3421301F01F042B
:105A60000121A140012B07D0022B07D01430002ABE
:105A7000026805D00A4304E00C30F8E71030F6E77E
:105A80008A43026010BD000030B50446008A85B02C
:105A90000D464CF6FF710840E98801432182A08938
:105AA0004EF6F3110840A9882A8911436A890243F6
:105AB0001143A181A08A4FF6FF410840A989014303
:105AC000A1826846FFF76EFB1948844201D1039812
:105AD00000E00298A189090400EBC00101EB00106D
